:100000000C9462000C948A000C948A000C948A0070
:100010000C948A000C948A000C948A000C948A0038
:100020000C948A000C948A000C948A000C948A0028
:100030000C948A000C948A000C948A000C948A0018
:100040000C94B0030C948A000C948A000C948A00DF
:100050000C948A000C948A000C948A000C948A00F8
:100060000C948A000C948A000000000024002700F1
:100070002A0000000000250028002B0000000000DE
:1000800023002600290004040404040404040202DA
:100090000202020203030303030301020408102007
:1000A0004080010204081020010204081020000012
:1000B0000008000201000003040700000000000027
:1000C0000000260511241FBECFEFD8E0DEBFCDBF54
:1000D00011E0A0E0B1E0E2E2FEE002C005900D9286
:1000E000A433B107D9F721E0A4E3B1E001C01D9228
:1000F000A935B207E1F710E0C2E6D0E004C02197CD
:10010000FE010E940907C136D107C9F70E94FA0310
:100110000C940F070C94000080E480937C00809185
:100120007A00806480937A0080917A0086FDFCCF0B
:1001300080917800909179000895833081F028F4BF
:10014000813099F08230A9F008958730A9F0883085
:10015000C9F08430B1F4809180008F7D03C080911C
:1001600080008F7780938000089584B58F7784BD59
:10017000089584B58F7DFBCF8091B0008F778093F9
:10018000B00008958091B0008F7DF9CFCF93DF93B9
:10019000282F30E0F901E255FF4F8491F901E6562E
:1001A000FF4FD491F901EA57FF4FC491CC23A1F03E
:1001B00081110E949D00EC2FF0E0EE0FFF1FE4582C
:1001C000FF4FA591B491EC91ED2381E090E009F40B
:1001D00080E0DF91CF91089580E090E0FACF1F9307
:1001E000CF93DF93282F30E0F901E255FF4F849140
:1001F000F901E656FF4FD491F901EA57FF4FC49138
:10020000CC23A9F0162F81110E949D00EC2FF0E065
:10021000EE0FFF1FEE58FF4FA591B4918FB7F894E2
:10022000EC91111108C0D095DE23DC938FBFDF91D4
:10023000CF911F910895DE2BF8CFCF93DF9390E0FD
:10024000FC01E656FF4F24918A579F4FFC01849191
:100250008823C9F090E0880F991FFC01E859FF4FEF
:10026000A591B491FC01EE58FF4FC591D491611155
:100270000DC09FB7F8948C91209582238C93888130
:10028000282328839FBFDF91CF910895623051F4D6
:100290009FB7F8943C91822F809583238C93E881BB
:1002A0002E2BEFCF8FB7F894EC912E2B2C938FBF82
:1002B000EACF3FB7F89480913D0190913E01A09123
:1002C0003F01B091400126B5A89B05C02F3F19F012
:1002D0000196A11DB11D3FBFBA2FA92F982F8827C6
:1002E000BC01CD01620F711D811D911D42E0660FA1
:1002F000771F881F991F4A95D1F708958F929F9273
:10030000AF92BF92CF92DF92EF92FF924B015C01CE
:100310000E9459016B017C010E9459016C197D09F1
:100320008E099F09683E734081059105A8F321E07D
:10033000821A9108A108B10888EEC80E83E0D81E81
:10034000E11CF11C81149104A104B10429F7FF9070
:10035000EF90DF90CF90BF90AF909F908F900895D7
:10036000AF92BF92CF92DF92EF92FF920F931F93C3
:10037000CF93DF936C017B018B01040F151FEB0101
:100380005E01AE18BF08C017D10759F06991D601B8
:10039000ED91FC910190F081E02DC6010995892B2A
:1003A00079F7C501DF91CF911F910F91FF90EF90E9
:1003B000DF90CF90BF90AF900895089590E080E0D7
:1003C00008958F929F92AF92BF920F931F93CF93F6
:1003D000DF93CDB7DEB7A1970FB6F894DEBF0FBE9F
:1003E000CDBF19A2423008F44AE08E010F5D1F4FC5
:1003F000842E912CB12CA12CA50194010E94E7061A
:10040000E62FB901CA01EA3044F5E05DD801EE9368
:100410008D01232B242B252B79F790E080E010977A
:1004200069F0FD0101900020E9F73197AF014A1B07
:100430005B0BBD0181E491E00E94B001A1960FB673
:10044000F894DEBF0FBECDBFDF91CF911F910F910A
:10045000BF90AF909F908F900895E95CD7CFFC013B
:1004600001900020E9F73197AF01481B590BBC01FF
:1004700081E491E00C94B001CF93DF93EC0160E054
:100480008E810E94EF0061E08E810E94EF0060E0AB
:100490008E810E94EF008BE891E00197F1F7DF91E8
:1004A000CF910895CF92DF92EF92FF920F931F9317
:1004B000CF93DF936C017C0187E0E80EF11CD0E064
:1004C000C0E0062F10E0B8010C2E02C075956795AC
:1004D0000A94E2F76170F70181917F010E94EF00B9
:1004E0002196C430D10579F7C601DF91CF911F91D4
:1004F0000F91FF90EF90DF90CF900C943C02CF9241
:10050000DF92EF92FF920F931F93CF93DF93EC0153
:10051000F62E642F8C810E94EF008D818F3F19F0A1
:1005200060E00E94EF000F2D10E08F8584FF25C052
:100530006E0187E0C80ED11CF12CE12CB8010E2C05
:1005400002C0759567950A94E2F76170F601819192
:100550006F010E94EF00FFEFEF1AFF0A88E0E81634
:10056000F10461F7CE01DF91CF911F910F91FF90C0
:10057000EF90DF90CF900C943C02B80184E0759529
:1005800067958A95E1F7CE010E9452026F2DCE0148
:10059000DF91CF911F910F91FF90EF90DF90CF905F
:1005A0000C94520240E0682F81E491E00C947F02A9
:1005B00081E00E94D2028BE39FE10197F1F7089559
:1005C000CF93DF93823029F49091500198609093FB
:1005D0005001809354011092550180E4809356019C
:1005E00080E18093570180E58093580161E080911C
:1005F00045010E941D01809146018F3F19F061E085
:100600000E941D0161E0809147010E941D01C1E42B
:10061000D1E09E01215431408091500184FD0BC0F6
:1006200084E090E021962817390744F461E08E8138
:100630000E941D01EECF88E090E0F4CF8BE39DE0B7
:100640000197F1F760E0809145010E94EF0060E0C2
:10065000809147010E94EF00809146018F3F19F081
:1006600060E00E94EF008091500184FD34C063E09F
:1006700081E491E00E945202CBE4D6E4CE010197DE
:10068000F1F763E081E491E00E9452022197F1F7D3
:1006900063E081E491E00E94520283E592E00197D9
:1006A000F1F762E081E491E00E94520280915001F2
:1006B00080620E94D20284E0809351018CE00E940B
:1006C000D2020E94D80282E08093520186E0DF913C
:1006D000CF910C94D20280620E94D2028BE496E405
:1006E0000197F1F78091500180620E94D20283E568
:1006F00092E00197F1F78091500180620E94D2024E
:10070000D5CF41E00E947F0281E090E00895CF9232
:10071000DF92EF92FF926C01990FEE08FF08F7FE4F
:1007200016C041E06DE281E491E00E947F026627FD
:100730007727CB016C197D098E099F094AE00E9439
:10074000E1010196FF90EF90DF90CF9008954AE08D
:10075000C701B601FF90EF90DF90CF900C94E101BC
:100760001F920F920FB60F9211242F933F938F93E6
:100770009F93AF93BF938091390190913A01A091DB
:100780003B01B0913C013091380123E0230F2D371C
:1007900058F50196A11DB11D2093380180933901B0
:1007A00090933A01A0933B01B0933C0180913D01AD
:1007B00090913E01A0913F01B09140010196A11D91
:1007C000B11D80933D0190933E01A0933F01B093F2
:1007D0004001BF91AF919F918F913F912F910F90C9
:1007E0000FBE0F901F90189526E8230F0296A11DAB
:1007F000B11DD2CF789484B5826084BD84B5816008
:1008000084BD85B5826085BD85B5816085BD8091DB
:100810006E00816080936E00109281008091810053
:10082000826080938100809181008160809381004B
:10083000809180008160809380008091B10084600D
:100840008093B1008091B00081608093B00080916E
:100850007A00846080937A0080917A00826080932D
:100860007A0080917A00816080937A0080917A008A
:10087000806880937A001092C10062E082E00E945A
:100880001D0162E083E00E941D0160E08EE00E9495
:100890001D0161E08AE00E941D0161E08BE00E9481
:1008A0001D0161E08CE00E941D0182E00E94E002D7
:1008B0008EE091E00E942F0260ED77E080E090E012
:1008C0000E947E01C0E0D0E083E00E94C600892B38
:1008D000A1F48091000190910101843691056CF49E
:1008E0000196909301018093000168EC70E080E034
:1008F00090E00E947E010E94D80282E00E94C60021
:10090000892BA1F48091000190910101181619061C
:100910006CF40197909301018093000168EC70E002
:1009200080E090E00E947E010E94D8020E948C002C
:1009300020913601309137018217930711F00E9400
:10094000D8020E948C009093370180933601BC013D
:10095000990F880B990B0E94EE0520E030E44CE9DA
:1009600050E40E947A0620E030E040E251E40E9428
:1009700044050E94B60570933501609334012091BF
:10098000000130910101261737070CF053C060E0D9
:100990008CE00E94EF0061E08AE00E94EF0060E0DE
:1009A0008BE00E94EF00E1E0809154018111E0E0D2
:1009B000E195F0E0EF5BFE4F848980680E94D202EF
:1009C0008EE191E00E942F028091340190913501D7
:1009D0000E94870341E06FED81E491E00E947F0275
:1009E00085E291E00E942F02E0915401E23060F52F
:1009F000E150F0E0EF5BFE4F848980680E94D202F4
:100A000087E291E00E942F02809100019091010104
:100A10000E94870341E06FED81E491E00E947F0234
:100A200085E291E00E942F02209709F44DCF0E94A9
:100A300000004ACF61E08CE00E94EF0060E08AE0B5
:100A40000E94EF0061E0ACCFE1E0D3CFE1E4F1E060
:100A50001382128286E091E09183808389E084830F
:100A60008FEF858388E0868387E0878386E08087B1
:100A700085E0818784E08287138614861586168632
:100A8000178681E00C94E0020E9458050C94400601
:100A90000E94390658F00E94320640F029F45F3F68
:100AA00029F00C94290651110C9474060C942F060D
:100AB0000E94510668F39923B1F3552391F3951BD6
:100AC000550BBB27AA2762177307840738F09F5F6F
:100AD0005F4F220F331F441FAA1FA9F335D00E2EDC
:100AE0003AF0E0E832D091505040E695001CCAF749
:100AF0002BD0FE2F29D0660F771F881FBB1F26170C
:100B000037074807AB07B0E809F0BB0B802DBF01E2
:100B1000FF2793585F4F3AF09E3F510578F00C94B1
:100B200029060C9474065F3FE4F3983ED4F386954F
:100B300077956795B795F7959F5FC9F7880F911DD2
:100B40009695879597F90895E1E0660F771F881FBE
:100B5000BB1F621773078407BA0720F0621B730B71
:100B6000840BBA0BEE1F88F7E09508950E94BD052F
:100B70006894B1110C94740608950E94590688F087
:100B80009F5798F0B92F9927B751B0F0E1F0660F51
:100B9000771F881F991F1AF0BA95C9F714C0B13092
:100BA00091F00E947306B1E008950C947306672FCC
:100BB000782F8827B85F39F0B93FCCF386957795C1
:100BC0006795B395D9F73EF49095809570956195AA
:100BD0007F4F8F4F9F4F0895E89409C097FB3EF4D5
:100BE00090958095709561957F4F8F4F9F4F99237A
:100BF000A9F0F92F96E9BB279395F69587957795F8
:100C00006795B795F111F8CFFAF4BB0F11F460FFB7
:100C10001BC06F5F7F4F8F4F9F4F16C0882311F00F
:100C200096E911C0772321F09EE8872F762F05C023
:100C3000662371F096E8862F70E060E02AF09A95BE
:100C4000660F771F881FDAF7880F9695879597F9B3
:100C5000089597F99F6780E870E060E008959FEF3E
:100C600080EC089500240A94161617061806090643
:100C7000089500240A941216130614060506089512
:100C8000092E0394000C11F4882352F0BB0F40F49A
:100C9000BF2B11F460FF04C06F5F7F4F8F4F9F4FDA
:100CA000089557FD9058440F551F59F05F3F71F05C
:100CB0004795880F97FB991F61F09F3F79F08795C3
:100CC0000895121613061406551FF2CF4695F1DF4C
:100CD00008C0161617061806991FF1CF86957105DC
:100CE000610508940895E894BB2766277727CB0110
:100CF00097F908950E948D060C9440060E943206D2
:100D000038F00E94390620F0952311F00C94290642
:100D10000C942F0611240C9474060E94510670F353
:100D2000959FC1F3950F50E0551F629FF001729F90
:100D3000BB27F00DB11D639FAA27F00DB11DAA1F9F
:100D4000649F6627B00DA11D661F829F2227B00DEC
:100D5000A11D621F739FB00DA11D621F839FA00D77
:100D6000611D221F749F3327A00D611D231F849FC7
:100D7000600D211D822F762F6A2F11249F5750401E
:100D80009AF0F1F088234AF0EE0FFF1FBB1F661F99
:100D9000771F881F91505040A9F79E3F510580F062
:100DA0000C9429060C9474065F3FE4F3983ED4F348
:100DB000869577956795B795F795E7959F5FC1F706
:100DC000FE2B880F911D9695879597F90895A1E2BE
:100DD0001A2EAA1BBB1BFD010DC0AA1FBB1FEE1FB5
:100DE000FF1FA217B307E407F50720F0A21BB30B00
:100DF000E40BF50B661F771F881F991F1A9469F77C
:100E000060957095809590959B01AC01BD01CF01D7
:100E10000895EE0FFF1F0590F491E02D0994F894CA
:020E2000FFCF02
:100E22001E00000000008103B001DE01DD015465F7
:100E32006D702E20726567756C61746F72005465F7
:100E42006D703A2000430053657420706F696E74B0
:040E52003A20000042
:00000001FF
